{
  "_format": "hh-sol-artifact-1",
  "contractName": "FhenixLearnBadge",
  "sourceName": "contracts/FhenixLearnBadge.sol",
  "abi": [
    {
      "inputs": [],
      "stateMutability": "nonpayable",
      "type": "constructor"
    },
    {
      "inputs": [
        {
          "internalType": "address",
          "name": "sender",
          "type": "address"
        },
        {
          "internalType": "uint256",
          "name": "tokenId",
          "type": "uint256"
        },
        {
          "internalType": "address",
          "name": "owner",
          "type": "address"
        }
      ],
      "name": "ERC721IncorrectOwner",
      "type": "error"
    },
    {
      "inputs": [
        {
          "internalType": "address",
          "name": "operator",
          "type": "address"
        },
        {
          "internalType": "uint256",
          "name": "tokenId",
          "type": "uint256"
        }
      ],
      "name": "ERC721InsufficientApproval",
      "type": "error"
    },
    {
      "inputs": [
        {
          "internalType": "address",
          "name": "approver",
          "type": "address"
        }
      ],
      "name": "ERC721InvalidApprover",
      "type": "error"
    },
    {
      "inputs": [
        {
          "internalType": "address",
          "name": "operator",
          "type": "address"
        }
      ],
      "name": "ERC721InvalidOperator",
      "type": "error"
    },
    {
      "inputs": [
        {
          "internalType": "address",
          "name": "owner",
          "type": "address"
        }
      ],
      "name": "ERC721InvalidOwner",
      "type": "error"
    },
    {
      "inputs": [
        {
          "internalType": "address",
          "name": "receiver",
          "type": "address"
        }
      ],
      "name": "ERC721InvalidReceiver",
      "type": "error"
    },
    {
      "inputs": [
        {
          "internalType": "address",
          "name": "sender",
          "type": "address"
        }
      ],
      "name": "ERC721InvalidSender",
      "type": "error"
    },
    {
      "inputs": [
        {
          "internalType": "uint256",
          "name": "tokenId",
          "type": "uint256"
        }
      ],
      "name": "ERC721NonexistentToken",
      "type": "error"
    },
    {
      "inputs": [
        {
          "internalType": "address",
          "name": "owner",
          "type": "address"
        }
      ],
      "name": "OwnableInvalidOwner",
      "type": "error"
    },
    {
      "inputs": [
        {
          "internalType": "address",
          "name": "account",
          "type": "address"
        }
      ],
      "name": "OwnableUnauthorizedAccount",
      "type": "error"
    },
    {
      "anonymous": false,
      "inputs": [
        {
          "indexed": true,
          "internalType": "address",
          "name": "owner",
          "type": "address"
        },
        {
          "indexed": true,
          "internalType": "address",
          "name": "approved",
          "type": "address"
        },
        {
          "indexed": true,
          "internalType": "uint256",
          "name": "tokenId",
          "type": "uint256"
        }
      ],
      "name": "Approval",
      "type": "event"
    },
    {
      "anonymous": false,
      "inputs": [
        {
          "indexed": true,
          "internalType": "address",
          "name": "owner",
          "type": "address"
        },
        {
          "indexed": true,
          "internalType": "address",
          "name": "operator",
          "type": "address"
        },
        {
          "indexed": false,
          "internalType": "bool",
          "name": "approved",
          "type": "bool"
        }
      ],
      "name": "ApprovalForAll",
      "type": "event"
    },
    {
      "anonymous": false,
      "inputs": [
        {
          "indexed": true,
          "internalType": "address",
          "name": "to",
          "type": "address"
        },
        {
          "indexed": true,
          "internalType": "uint256",
          "name": "tokenId",
          "type": "uint256"
        },
        {
          "indexed": false,
          "internalType": "string",
          "name": "uri",
          "type": "string"
        }
      ],
      "name": "BadgeMinted",
      "type": "event"
    },
    {
      "anonymous": false,
      "inputs": [
        {
          "indexed": false,
          "internalType": "uint256",
          "name": "_fromTokenId",
          "type": "uint256"
        },
        {
          "indexed": false,
          "internalType": "uint256",
          "name": "_toTokenId",
          "type": "uint256"
        }
      ],
      "name": "BatchMetadataUpdate",
      "type": "event"
    },
    {
      "anonymous": false,
      "inputs": [
        {
          "indexed": false,
          "internalType": "uint256",
          "name": "_tokenId",
          "type": "uint256"
        }
      ],
      "name": "MetadataUpdate",
      "type": "event"
    },
    {
      "anonymous": false,
      "inputs": [
        {
          "indexed": true,
          "internalType": "address",
          "name": "previousOwner",
          "type": "address"
        },
        {
          "indexed": true,
          "internalType": "address",
          "name": "newOwner",
          "type": "address"
        }
      ],
      "name": "OwnershipTransferred",
      "type": "event"
    },
    {
      "anonymous": false,
      "inputs": [
        {
          "indexed": true,
          "internalType": "address",
          "name": "from",
          "type": "address"
        },
        {
          "indexed": true,
          "internalType": "address",
          "name": "to",
          "type": "address"
        },
        {
          "indexed": true,
          "internalType": "uint256",
          "name": "tokenId",
          "type": "uint256"
        }
      ],
      "name": "Transfer",
      "type": "event"
    },
    {
      "inputs": [
        {
          "internalType": "address",
          "name": "to",
          "type": "address"
        },
        {
          "internalType": "string",
          "name": "uri",
          "type": "string"
        }
      ],
      "name": "adminMint",
      "outputs": [
        {
          "internalType": "uint256",
          "name": "",
          "type": "uint256"
        }
      ],
      "stateMutability": "nonpayable",
      "type": "function"
    },
    {
      "inputs": [
        {
          "internalType": "address",
          "name": "to",
          "type": "address"
        },
        {
          "internalType": "uint256",
          "name": "tokenId",
          "type": "uint256"
        }
      ],
      "name": "approve",
      "outputs": [],
      "stateMutability": "nonpayable",
      "type": "function"
    },
    {
      "inputs": [
        {
          "internalType": "address",
          "name": "owner",
          "type": "address"
        }
      ],
      "name": "balanceOf",
      "outputs": [
        {
          "internalType": "uint256",
          "name": "",
          "type": "uint256"
        }
      ],
      "stateMutability": "view",
      "type": "function"
    },
    {
      "inputs": [
        {
          "internalType": "uint256",
          "name": "tokenId",
          "type": "uint256"
        }
      ],
      "name": "getApproved",
      "outputs": [
        {
          "internalType": "address",
          "name": "",
          "type": "address"
        }
      ],
      "stateMutability": "view",
      "type": "function"
    },
    {
      "inputs": [
        {
          "internalType": "address",
          "name": "owner",
          "type": "address"
        },
        {
          "internalType": "address",
          "name": "operator",
          "type": "address"
        }
      ],
      "name": "isApprovedForAll",
      "outputs": [
        {
          "internalType": "bool",
          "name": "",
          "type": "bool"
        }
      ],
      "stateMutability": "view",
      "type": "function"
    },
    {
      "inputs": [
        {
          "internalType": "string",
          "name": "uri",
          "type": "string"
        }
      ],
      "name": "mint",
      "outputs": [
        {
          "internalType": "uint256",
          "name": "",
          "type": "uint256"
        }
      ],
      "stateMutability": "nonpayable",
      "type": "function"
    },
    {
      "inputs": [],
      "name": "name",
      "outputs": [
        {
          "internalType": "string",
          "name": "",
          "type": "string"
        }
      ],
      "stateMutability": "view",
      "type": "function"
    },
    {
      "inputs": [],
      "name": "owner",
      "outputs": [
        {
          "internalType": "address",
          "name": "",
          "type": "address"
        }
      ],
      "stateMutability": "view",
      "type": "function"
    },
    {
      "inputs": [
        {
          "internalType": "uint256",
          "name": "tokenId",
          "type": "uint256"
        }
      ],
      "name": "ownerOf",
      "outputs": [
        {
          "internalType": "address",
          "name": "",
          "type": "address"
        }
      ],
      "stateMutability": "view",
      "type": "function"
    },
    {
      "inputs": [],
      "name": "renounceOwnership",
      "outputs": [],
      "stateMutability": "nonpayable",
      "type": "function"
    },
    {
      "inputs": [
        {
          "internalType": "address",
          "name": "from",
          "type": "address"
        },
        {
          "internalType": "address",
          "name": "to",
          "type": "address"
        },
        {
          "internalType": "uint256",
          "name": "tokenId",
          "type": "uint256"
        }
      ],
      "name": "safeTransferFrom",
      "outputs": [],
      "stateMutability": "nonpayable",
      "type": "function"
    },
    {
      "inputs": [
        {
          "internalType": "address",
          "name": "from",
          "type": "address"
        },
        {
          "internalType": "address",
          "name": "to",
          "type": "address"
        },
        {
          "internalType": "uint256",
          "name": "tokenId",
          "type": "uint256"
        },
        {
          "internalType": "bytes",
          "name": "data",
          "type": "bytes"
        }
      ],
      "name": "safeTransferFrom",
      "outputs": [],
      "stateMutability": "nonpayable",
      "type": "function"
    },
    {
      "inputs": [
        {
          "internalType": "address",
          "name": "operator",
          "type": "address"
        },
        {
          "internalType": "bool",
          "name": "approved",
          "type": "bool"
        }
      ],
      "name": "setApprovalForAll",
      "outputs": [],
      "stateMutability": "nonpayable",
      "type": "function"
    },
    {
      "inputs": [
        {
          "internalType": "bytes4",
          "name": "interfaceId",
          "type": "bytes4"
        }
      ],
      "name": "supportsInterface",
      "outputs": [
        {
          "internalType": "bool",
          "name": "",
          "type": "bool"
        }
      ],
      "stateMutability": "view",
      "type": "function"
    },
    {
      "inputs": [],
      "name": "symbol",
      "outputs": [
        {
          "internalType": "string",
          "name": "",
          "type": "string"
        }
      ],
      "stateMutability": "view",
      "type": "function"
    },
    {
      "inputs": [
        {
          "internalType": "uint256",
          "name": "tokenId",
          "type": "uint256"
        }
      ],
      "name": "tokenURI",
      "outputs": [
        {
          "internalType": "string",
          "name": "",
          "type": "string"
        }
      ],
      "stateMutability": "view",
      "type": "function"
    },
    {
      "inputs": [
        {
          "internalType": "address",
          "name": "from",
          "type": "address"
        },
        {
          "internalType": "address",
          "name": "to",
          "type": "address"
        },
        {
          "internalType": "uint256",
          "name": "tokenId",
          "type": "uint256"
        }
      ],
      "name": "transferFrom",
      "outputs": [],
      "stateMutability": "nonpayable",
      "type": "function"
    },
    {
      "inputs": [
        {
          "internalType": "address",
          "name": "newOwner",
          "type": "address"
        }
      ],
      "name": "transferOwnership",
      "outputs": [],
      "stateMutability": "nonpayable",
      "type": "function"
    }
  ],
  "bytecode": "0x608060405234801561000f575f80fd5b5033604051806040016040528060128152602001714668656e6978204c6561726e20426164676560701b8152506040518060400160405280600381526020016223242160e91b815250815f9081610066919061019b565b506001610073828261019b565b5050506001600160a01b0381166100a357604051631e4fbdf760e01b81525f600482015260240160405180910390fd5b6100ac816100b2565b5061025a565b600780546001600160a01b038381166001600160a01b0319831681179093556040519116919082907f8be0079c531659141344cd1fd0a4f28419497f9722a3daafe3b4186f6b6457e0905f90a35050565b634e487b7160e01b5f52604160045260245ffd5b600181811c9082168061012b57607f821691505b60208210810361014957634e487b7160e01b5f52602260045260245ffd5b50919050565b601f82111561019657805f5260205f20601f840160051c810160208510156101745750805b601f840160051c820191505b81811015610193575f8155600101610180565b50505b505050565b81516001600160401b038111156101b4576101b4610103565b6101c8816101c28454610117565b8461014f565b602080601f8311600181146101fb575f84156101e45750858301515b5f19600386901b1c1916600185901b178555610252565b5f85815260208120601f198616915b828110156102295788860151825594840194600190910190840161020a565b508582101561024657878501515f19600388901b60f8161c191681555b505060018460011b0185555b505050505050565b6114e4806102675f395ff3fe608060405234801561000f575f80fd5b5060043610610111575f3560e01c8063715018a61161009e578063b88d4fde1161006e578063b88d4fde14610233578063c87b56dd14610246578063d85d3d2714610259578063e985e9c51461026c578063f2fde38b1461027f575f80fd5b8063715018a6146101ff5780638da5cb5b1461020757806395d89b4114610218578063a22cb46514610220575f80fd5b806323b872dd116100e457806323b872dd1461019257806342842e0e146101a55780635919c74b146101b85780636352211e146101d957806370a08231146101ec575f80fd5b806301ffc9a71461011557806306fdde031461013d578063081812fc14610152578063095ea7b31461017d575b5f80fd5b610128610123366004610fc6565b610292565b60405190151581526020015b60405180910390f35b6101456102bc565b604051610134919061100f565b610165610160366004611021565b61034b565b6040516001600160a01b039091168152602001610134565b61019061018b366004611053565b610372565b005b6101906101a036600461107b565b610381565b6101906101b336600461107b565b61040f565b6101cb6101c6366004611159565b61042e565b604051908152602001610134565b6101656101e7366004611021565b6104aa565b6101cb6101fa3660046111a4565b6104b4565b6101906104f9565b6007546001600160a01b0316610165565b61014561050c565b61019061022e3660046111bd565b61051b565b6101906102413660046111f6565b610526565b610145610254366004611021565b61053e565b6101cb61026736600461126d565b6105bf565b61012861027a36600461129f565b610634565b61019061028d3660046111a4565b610661565b5f6001600160e01b03198216632483248360e11b14806102b657506102b68261069e565b92915050565b60605f80546102ca906112d0565b80601f01602080910402602001604051908101604052809291908181526020018280546102f6906112d0565b80156103415780601f1061031857610100808354040283529160200191610341565b820191905f5260205f20905b81548152906001019060200180831161032457829003601f168201915b5050505050905090565b5f610355826106ed565b505f828152600460205260409020546001600160a01b03166102b6565b61037d828233610725565b5050565b6001600160a01b0382166103af57604051633250574960e11b81525f60048201526024015b60405180910390fd5b5f6103bb838333610732565b9050836001600160a01b0316816001600160a01b031614610409576040516364283d7b60e01b81526001600160a01b03808616600483015260248201849052821660448201526064016103a6565b50505050565b61042983838360405180602001604052805f815250610526565b505050565b5f610437610824565b600880545f918261044783611308565b9190505590506104578482610851565b610461818461086a565b80846001600160a01b03167f6854c057dc92416510857b3daad5434a4202a4d192cf0f85d496d91974efaea38560405161049b919061100f565b60405180910390a39392505050565b5f6102b6826106ed565b5f6001600160a01b0382166104de576040516322718ad960e21b81525f60048201526024016103a6565b506001600160a01b03165f9081526003602052604090205490565b610501610824565b61050a5f6108b9565b565b6060600180546102ca906112d0565b61037d33838361090a565b610531848484610381565b61040933858585856109d1565b6060610549826106ed565b505f61055f60408051602081019091525f815290565b90505f61056b84610af9565b905081515f0361057c579392505050565b8051156105ae578181604051602001610596929190611343565b60405160208183030381529060405292505050919050565b6105b784610b98565b949350505050565b600880545f91829190826105d283611308565b9190505590506105e23382610851565b6105ec818461086a565b80336001600160a01b03167f6854c057dc92416510857b3daad5434a4202a4d192cf0f85d496d91974efaea385604051610626919061100f565b60405180910390a392915050565b6001600160a01b039182165f90815260056020908152604080832093909416825291909152205460ff1690565b610669610824565b6001600160a01b03811661069257604051631e4fbdf760e01b81525f60048201526024016103a6565b61069b816108b9565b50565b5f6001600160e01b031982166380ac58cd60e01b14806106ce57506001600160e01b03198216635b5e139f60e01b145b806102b657506301ffc9a760e01b6001600160e01b03198316146102b6565b5f818152600260205260408120546001600160a01b0316806102b657604051637e27328960e01b8152600481018490526024016103a6565b6104298383836001610c09565b5f828152600260205260408120546001600160a01b039081169083161561075e5761075e818486610d0d565b6001600160a01b03811615610798576107795f855f80610c09565b6001600160a01b0381165f90815260036020526040902080545f190190555b6001600160a01b038516156107c6576001600160a01b0385165f908152600360205260409020805460010190555b5f8481526002602052604080822080546001600160a01b0319166001600160a01b0389811691821790925591518793918516917fddf252ad1be2c89b69c2b068fc378daa952ba7f163c4a11628f55a4df523b3ef91a4949350505050565b6007546001600160a01b0316331461050a5760405163118cdaa760e01b81523360048201526024016103a6565b61037d828260405180602001604052805f815250610d71565b5f828152600660205260409020610881828261139b565b506040518281527ff8e1a15aba9398e019f0b49df1a4fde98ee17ae345cb5f6b5e2c27f5033e8ce79060200160405180910390a15050565b600780546001600160a01b038381166001600160a01b0319831681179093556040519116919082907f8be0079c531659141344cd1fd0a4f28419497f9722a3daafe3b4186f6b6457e0905f90a35050565b6001600160a01b0383166109335760405163a9fbf51f60e01b81525f60048201526024016103a6565b6001600160a01b03821661096557604051630b61174360e31b81526001600160a01b03831660048201526024016103a6565b6001600160a01b038381165f81815260056020908152604080832094871680845294825291829020805460ff191686151590811790915591519182527f17307eab39ab6107e8899845ad3d59bd9653f200f220920489ca2b5937696c31910160405180910390a3505050565b6001600160a01b0383163b15610af257604051630a85bd0160e11b81526001600160a01b0384169063150b7a0290610a13908890889087908790600401611457565b6020604051808303815f875af1925050508015610a4d575060408051601f3d908101601f19168201909252610a4a91810190611493565b60015b610ab4573d808015610a7a576040519150601f19603f3d011682016040523d82523d5f602084013e610a7f565b606091505b5080515f03610aac57604051633250574960e11b81526001600160a01b03851660048201526024016103a6565b805160208201fd5b6001600160e01b03198116630a85bd0160e11b14610af057604051633250574960e11b81526001600160a01b03851660048201526024016103a6565b505b5050505050565b5f818152600660205260409020805460609190610b15906112d0565b80601f0160208091040260200160405190810160405280929190818152602001828054610b41906112d0565b8015610b8c5780601f10610b6357610100808354040283529160200191610b8c565b820191905f5260205f20905b815481529060010190602001808311610b6f57829003601f168201915b50505050509050919050565b6060610ba3826106ed565b505f610bb960408051602081019091525f815290565b90505f815111610bd75760405180602001604052805f815250610c02565b80610be184610d88565b604051602001610bf2929190611343565b6040516020818303038152906040525b9392505050565b8080610c1d57506001600160a01b03821615155b15610cde575f610c2c846106ed565b90506001600160a01b03831615801590610c585750826001600160a01b0316816001600160a01b031614155b8015610c6b5750610c698184610634565b155b15610c945760405163a9fbf51f60e01b81526001600160a01b03841660048201526024016103a6565b8115610cdc5783856001600160a01b0316826001600160a01b03167f8c5be1e5ebec7d5bd14f71427d1e84f3dd0314c0f7b2291e5b200ac8c7c3b92560405160405180910390a45b505b50505f90815260046020526040902080546001600160a01b0319166001600160a01b0392909216919091179055565b610d18838383610e18565b610429576001600160a01b038316610d4657604051637e27328960e01b8152600481018290526024016103a6565b60405163177e802f60e01b81526001600160a01b0383166004820152602481018290526044016103a6565b610d7b8383610e79565b610429335f8585856109d1565b60605f610d9483610eda565b60010190505f8167ffffffffffffffff811115610db357610db36110b4565b6040519080825280601f01601f191660200182016040528015610ddd576020820181803683370190505b5090508181016020015b5f19016f181899199a1a9b1b9c1cb0b131b232b360811b600a86061a8153600a8504945084610de757509392505050565b5f6001600160a01b038316158015906105b75750826001600160a01b0316846001600160a01b03161480610e515750610e518484610634565b806105b75750505f908152600460205260409020546001600160a01b03908116911614919050565b6001600160a01b038216610ea257604051633250574960e11b81525f60048201526024016103a6565b5f610eae83835f610732565b90506001600160a01b03811615610429576040516339e3563760e11b81525f60048201526024016103a6565b5f8072184f03e93ff9f4daa797ed6e38ed64bf6a1f0160401b8310610f185772184f03e93ff9f4daa797ed6e38ed64bf6a1f0160401b830492506040015b6d04ee2d6d415b85acef81000000008310610f44576d04ee2d6d415b85acef8100000000830492506020015b662386f26fc100008310610f6257662386f26fc10000830492506010015b6305f5e1008310610f7a576305f5e100830492506008015b6127108310610f8e57612710830492506004015b60648310610fa0576064830492506002015b600a83106102b65760010192915050565b6001600160e01b03198116811461069b575f80fd5b5f60208284031215610fd6575f80fd5b8135610c0281610fb1565b5f81518084528060208401602086015e5f602082860101526020601f19601f83011685010191505092915050565b602081525f610c026020830184610fe1565b5f60208284031215611031575f80fd5b5035919050565b80356001600160a01b038116811461104e575f80fd5b919050565b5f8060408385031215611064575f80fd5b61106d83611038565b946020939093013593505050565b5f805f6060848603121561108d575f80fd5b61109684611038565b92506110a460208501611038565b9150604084013590509250925092565b634e487b7160e01b5f52604160045260245ffd5b5f67ffffffffffffffff808411156110e2576110e26110b4565b604051601f8501601f19908116603f0116810190828211818310171561110a5761110a6110b4565b81604052809350858152868686011115611122575f80fd5b858560208301375f602087830101525050509392505050565b5f82601f83011261114a575f80fd5b610c02838335602085016110c8565b5f806040838503121561116a575f80fd5b61117383611038565b9150602083013567ffffffffffffffff81111561118e575f80fd5b61119a8582860161113b565b9150509250929050565b5f602082840312156111b4575f80fd5b610c0282611038565b5f80604083850312156111ce575f80fd5b6111d783611038565b9150602083013580151581146111eb575f80fd5b809150509250929050565b5f805f8060808587031215611209575f80fd5b61121285611038565b935061122060208601611038565b925060408501359150606085013567ffffffffffffffff811115611242575f80fd5b8501601f81018713611252575f80fd5b611261878235602084016110c8565b91505092959194509250565b5f6020828403121561127d575f80fd5b813567ffffffffffffffff811115611293575f80fd5b6105b78482850161113b565b5f80604083850312156112b0575f80fd5b6112b983611038565b91506112c760208401611038565b90509250929050565b600181811c908216806112e457607f821691505b60208210810361130257634e487b7160e01b5f52602260045260245ffd5b50919050565b5f6001820161132557634e487b7160e01b5f52601160045260245ffd5b5060010190565b5f81518060208401855e5f93019283525090919050565b5f6105b7611351838661132c565b8461132c565b601f82111561042957805f5260205f20601f840160051c8101602085101561137c5750805b601f840160051c820191505b81811015610af2575f8155600101611388565b815167ffffffffffffffff8111156113b5576113b56110b4565b6113c9816113c384546112d0565b84611357565b602080601f8311600181146113fc575f84156113e55750858301515b5f19600386901b1c1916600185901b178555610af0565b5f85815260208120601f198616915b8281101561142a5788860151825594840194600190910190840161140b565b508582101561144757878501515f19600388901b60f8161c191681555b5050505050600190811b01905550565b6001600160a01b03858116825284166020820152604081018390526080606082018190525f9061148990830184610fe1565b9695505050505050565b5f602082840312156114a3575f80fd5b8151610c0281610fb156fea2646970667358221220c2790c29df75aaa547fab773ec086be230a32c0501a561226acdf5a60426145564736f6c63430008190033",
  "linkReferences": {},
  "deployedLinkReferences": {}
}